:020000040800F2
:1000000000000120550E0008750300087703000862
:10001000790300087B0300087D030008000000004E
:100020000000000000000000000000007F03000846
:100030008103000800000000830300088503000816
:10004000A50E0008A50E0008A50E0008A50E0008C4
:10005000A50E0008A50E0008A50E0008A50E0008B4
:10006000A50E0008A50E0008A50E0008A50E0008A4
:10007000A50E0008A50E0008A50E0008A50E000894
:10008000A50E0008A50E0008A50E0008000000003F
:10009000000000000000000000000000A50E0008A5
:1000A000A50E0008A50E0008A50E0008A50E000864
:1000B000A50E0008A50E0008A50E0008A50E000854
:1000C000A50E0008A50E0008A50E0008A50E000844
:1000D000A50E0008A50E0008A50E000800000000EF
:1000E000A50E0008A50E0008A50E000800000000DF
:1000F000000000000000000000000000A50E000845
:1001000000000000A50E0008A50E0008A50E0008BE
:1001100000000000000000000000000000000000DF
:10012000A50E0008A50E0008A50E0008A50E0008E3
:10013000A50E000800000000000000000000000004
:10014000000000000000000000000000A50E0008F4
:10015000A50E0008A50E0008A50E0008A50E0008B3
:10016000A50E0008A50E0008000000000000000019
:10017000000000000000000000000000000000007F
:1001800000000000A50E00080000000000000000B4
:04019000A50E0008B0
:1001940053B94AB9002908BF00281CBF4FF0FF31EA
:1001A4004FF0FF3000F00CB8ADF1080C6DE904CE4F
:1001B40000F0A4FEDDF804E0DDE9022304B070479A
:1001C400704700BF08B5064B1A783AB9054A1AB108
:1001D4000548AFF30080024B01221A7008BD00BF2E
:1001E4000C000020000000002012000808B5034B9A
:1001F4001BB103490348AFF3008008BD00000000B1
:100204001000002020120008F0B589B003AD0024CE
:10021400039404940594069407940194174B1A6B61
:1002240042F004021A631A6B02F004020192019A6A
:1002340002941A6B42F001021A631B6B03F0010370
:100244000293029B0E4F22464FF48041384600F041
:10025400B0FC4FF48043039301260496059406945E
:100264002946384600F0AEFB0396049405962946C9
:10027400044800F0A7FB09B0F0BD00BF00380240FD
:10028400000802400000024072B6FEE710B594B0C8
:1002940008AC30220021204600F003FE0023039323
:1002A40004930593069307930193194A116C41F043
:1002B40080511164126C02F080520192019A0293EF
:1002C40014490A6822F4404242F400420A600A686F
:1002D40002F440420292029A0222089201220B92F4
:1002E40010220C920E93204600F06AF860B90F2396
:1002F40003930146049005900690079003A800F02C
:10030400B1FA18B914B010BDFFF7BEFFFFF7BCFF78
:10031400003802400070004008B500F00FFDFFF700
:10032400B5FFFFF771FFC82000F034FD00F050FD69
:1003340040B14FF480410D4800F041FCC82000F06A
:1003440029FDF6E700F044FD40B14FF48041074831
:1003540000F035FCC82000F01DFDF6E700F056FD66
:100364000028F2D000F060FD002008BD0008024023
:10037400FEE7FEE7FEE7FEE7FEE7704770477047DB
:1003840008B500F0F5FC08BD82B0002100910B4BCC
:100394005A6C42F480425A645A6C02F480420092CD
:1003A400009A01911A6C42F080521A641B6C03F09B
:1003B40080530193019B02B0704700BF0038024094
:1003C400002800F0E28170B582B00446036813F09F
:1003D400010F3BD09B4B9B6803F00C03042B2CD0E8
:1003E400984B9B6803F00C03082B21D06368B3F58A
:1003F400803F4FD0B3F5A02F52D0924B1A6822F40D
:1004040080321A601A6822F480221A606368002B12
:1004140050D000F0B9FC05468A4B1B6813F4003F2A
:1004240014D100F0B1FC401B6428F5D90320B3E1DA
:10043400844B5B6813F4800FD8D0824B1B6813F491
:10044400003F03D06368002B00F0A181236813F000
:10045400020F54D07B4B9B6813F00C0F3ED0794BAA
:100464009B6803F00C03082B33D0E368002B68D09F
:10047400754B01221A6000F087FC0546714B1B681E
:1004840013F0020F54D100F07FFC401B0228F5D971
:10049400032081E16B4A136843F480331360B5E7AA
:1004A400684B1A6842F480221A601A6842F4803257
:1004B4001A60ABE700F068FC0546624B1B6813F456
:1004C400003FC3D000F060FC401B6428F5D9032032
:1004D40062E15C4B5B6813F4800FC6D1594B1B6817
:1004E40013F0020F03D0E368012B40F05281554A08
:1004F400136823F0F803216943EAC10313602368F6
:1005040013F0080F42D063696BB34F4B0122C3F859
:10051400802E00F039FC05464A4B5B6F13F0020F46
:1005240034D100F031FC401B0228F5D9032033E11B
:10053400444A136823F0F803216943EAC1031360B2
:10054400DDE7414B00221A6000F01EFC05463D4BDE
:100554001B6813F0020FD2D000F016FC401B0228D7
:10056400F5D9032018E1384B0022C3F8802E00F09F
:100574000BFC0546334B5B6F13F0020F06D000F003
:1005840003FC401B0228F5D9032005E1236813F07E
:10059400040F79D02B4B1B6C13F0805F34D10023F4
:1005A4000193284B1A6C42F080521A641B6C03F0BE
:1005B40080530193019B01231E46244B1B6813F4B3
:1005C400807F24D0A368012B35D0052B40D01D4B50
:1005D4001A6F22F001021A671A6F22F004021A67D6
:1005E400A368002B3ED000F0CFFB0546154B1B6FD4
:1005F40013F0020F47D100F0C7FB401B41F28833D0
:100604009842F3D90320C7E000231E46D5E70F4ADA
:10061400136843F48073136000F0B6FB05460B4B7C
:100624001B6813F4807FCDD100F0AEFB401B022881
:10063400F5D90320B0E0034A136F43F001031367B5
:10064400CEE700BF0038024000004742007000407F
:10065400584B1A6F42F004021A671A6F42F00102F3
:100664001A67BDE700F090FB0546524B1B6F13F071
:10067400020F08D000F088FB401B41F288339842F7
:10068400F3D9032088E0EEB9A369002B00F083803E
:10069400484A926802F00C02082A51D0022B17D063
:1006A400454B00221A6600F06FFB0446414B1B6861
:1006B40013F0007F42D000F067FB001B0228F5D93D
:1006C400032069E03B4A136C23F080531364DBE797
:1006D400394B00221A6600F057FB0546354B1B6860
:1006E40013F0007F06D000F04FFB401B0228F5D921
:1006F400032051E0E369226A1343626A43EA8213E6
:10070400A26A5208013A43EA0243E26A43EA0263F4
:10071400284A5360284B01221A6600F035FB044630
:10072400244B1B6813F0007F06D100F02DFB001B47
:100734000228F5D903202FE000202DE000202BE033
:10074400012B2BD01B4B5B6803F48001E2699142BF
:1007540026D103F03F02216A8A4223D1616A47F617
:10076400C0721A40B2EB811F1ED103F44031A26A59
:100774005208013AB1EB024F18D103F07063E26AF8
:10078400B3EB026F14D1002006E001207047012072
:1007940002E0012000E0184602B070BD0120FBE732
:1007A4000120F9E70120F7E70120F5E70120F3E74D
:1007B4000120F1E7003802400000474208B5264B0B
:1007C4009B6803F00C03042B41D0082B41D1224B2E
:1007D4005A6802F03F025B6813F4800F12D01E4B7C
:1007E4005968C1F388111D480023A1FB0001FFF7DC
:1007F400CFFC194B5B68C3F3014301335B00B0FBCF
:10080400F3F008BD144B5868C0F388104FEA401C3D
:10081400BCEB000C6EEB0E0E4FEA8E1343EA9C63A6
:100824004FEA8C11B1EB0C0163EB0E03DB0043EADE
:100834005173C90011EB000C43F10003990200232A
:100844004FEA8C2041EA9C51FFF7A2FCD1E7034810
:10085400D7E70348D5E700BF0038024040787D0160
:100864000024F400002800F09B8070B50D46044677
:100874004F4B1B6803F007038B4208D2CBB24C4AA0
:100884001370136803F007038B4240F08B802368D6
:1008940013F0020F17D013F0040F04D0454A9368E5
:1008A40043F4E0539360236813F0080F04D0414AE3
:1008B400936843F4604393603E4A936823F0F003E3
:1008C400A1680B439360236813F0010F32D063686F
:1008D400012B21D09A1E012A25D9364A126812F01A
:1008E400020F61D033498A6822F0030213438B60FC
:1008F40000F04AFA06462F4B9B6803F00C0362682B
:10090400B3EB820F16D000F03FFA801B41F288331C
:100914009842F0D9032042E0264A126812F4003FBC
:10092400E0D101203BE0234A126812F0007FD9D1C4
:10093400012034E01E4B1B6803F00703AB4207D9C8
:10094400EAB21B4B1A701B6803F00703AB422DD1AC
:10095400236813F0040F06D0164A936823F4E05377
:10096400E1680B439360236813F0080F07D0114A22
:10097400936823F46043216943EAC1039360FFF75A
:100984001DFF0C4B9B68C3F303130B4AD35CD84085
:100994000A4B18600A4B186800F0AAF9002070BDD1
:1009A400012070470120FAE70120F8E70120F6E76B
:1009B400003C0240003802403812000808000020C1
:1009C4000400002070B582B08E46002369E085687B
:1009D4004FEA430C032101FA0CF125EA0105DEF884
:1009E4000C1001FA0CF129438160416821EA0201EB
:1009F400DEF80420C2F300129A400A43426064E025
:100A0400D908083150F8212003F00705AD004FF054
:100A14000F0C0CFA05FC22EA0C0CDEF81020AA409C
:100A240042EA0C0240F8212066E0042200E00022A1
:100A340002FA0CF22A430231564D45F82120564A57
:100A44009168E24321EA0405DEF8046016F4801F8D
:100A540001D044EA010550498D60C96802EA0105E4
:100A6400DEF8046016F4001F01D044EA01054A4987
:100A7400CD60496802EA0105DEF8046016F4003F1F
:100A840001D044EA010544494D6009680A40DEF892
:100A9400045015F4803F01D044EA01023E490A6043
:100AA40001330F2B74D801229A40DEF8001001EABA
:100AB400020432EA0101F3D1DEF8041001F0030C60
:100AC4000CF1FF3CBCF1010F81D9DEF8042002F0E7
:100AD4000302032A0AD0C1685D000322AA4021EA66
:100AE4000201DEF80820AA400A43C260DEF80420AE
:100AF40002F00302022A83D001684FEA430C032266
:100B040002FA0CF221EA0201DEF8042002F00302E8
:100B140002FA0CF20A430260DEF8042012F4403FA9
:100B2400BED0002201921D4A516C41F480415164AF
:100B3400526C02F480420192019A99088D1C154A64
:100B440052F8255003F0030C4FEA8C0C0F2202FAE2
:100B54000CF225EA0205124A90423FF468AF02F50E
:100B6400806290420ED002F5806290420CD002F571
:100B7400806290420AD002F5806290423FF455AF01
:100B8400072255E7012253E7022251E703224FE7E8
:100B940002B070BD00380140003C01400038024002
:100BA400000002400369194201D00120704700206F
:100BB40070470AB1816170470904816170474369D4
:100BC40001EA030221EA030141EA0241816170471B
:100BD400002808DB0901C9B200F1604000F561405A
:100BE40080F80013704700F00F000901C9B2014BEF
:100BF4001954704714ED00E000B500F00700A0F1AF
:100C0400030CBCF1040F07D8C0F1070E043006280A
:100C140006D84FF0000C03E04FF0040E4FF0000C28
:100C24004FF0FF3303FA0EF021EA000101FA0CF150
:100C340003FA0CF322EA030241EA020000BD0000B9
:100C4400074AD36823F4E0631B041B0C000200F47E
:100C5400E060034343F0BF6343F40033D360704761
:100C640000ED00E010B50446054BD868C0F302203F
:100C7400FFF7C2FF01462046FFF7AAFF10BD00BFE1
:100C840000ED00E00138B0F1807F0BD24FF0E0239B
:100C94005861054AF02182F8231000209861072248
:100CA4001A6170470120704700ED00E070470000B2
:100CB40010B50B4B0B4A1A6200241C620A4A5A6292
:100CC4005C620A4A1A611C6180225A615C614FF0BD
:100CD400FF329A619C61FFF7E9FF204610BD00BF17
:100CE400003802400FC8E210317907009F106000FD
:100CF40010B504460E4B18680E4B1A784FF47A73ED
:100D0400B3FBF2F3B0FBF3F0FFF7BCFF68B90F2CB1
:100D140001D901200AE0024621464FF0FF30FFF7D7
:100D2400A1FF054B1C60002000E0012010BD00BFA6
:100D340008000020000000200400002008B50B4B30
:100D44001A6842F400721A601A6842F480621A60E7
:100D54001A6842F480721A600320FFF771FF0F20B3
:100D6400FFF7C6FFFFF710FB002008BD003C024060
:100D7400034A1168034B1B780B441360704700BF90
:100D84002800002000000020014B1868704700BFB5
:100D94002800002038B50446FFF7F6FF0546B4F1F5
:100DA400FF3F02D0044B1B781C44FFF7EDFF401BB0
:100DB400A042FAD338BD00BF00000020034AD2F895
:100DC400883043F47003C2F88830704700ED00E0C7
:100DD40010B54FF4FA60FFF7DDFF01210A48FFF771
:100DE400E1FE18B100231C46204610BD04466420D1
:100DF400FFF7D0FF01210448FFF7D4FE0028F3D108
:100E040001231C46F0E700BF00000240054B1B68AD
:100E140003F16043B3F5803F01D9002070470120FE
:100E2400704700BF0040000870B5074D2E686C681D
:100E340072B6FFF73DFF054B9D6086F3088844F0CA
:100E44000104A04770BD00BF0040000800ED00E0B1
:100E5400DFF834D0FFF7B2FF0C480D490D4A0023E8
:100E640002E0D458C4500433C4188C42F9D30A4A5B
:100E74000A4C002301E013600432A242FBD300F0C9
:100E840019F8FFF749FA704700000120000000201C
:100E94000C000020581200080C0000202C00002038
:100EA400FEE702440346934200D1704703F8011B56
:100EB400F9E7000070B50D4B0D4C00261D1BB6EB79
:100EC400A50F09D100F0AAF90A4C0B4B00261D1BF3
:100ED400B6EBA50F05D170BD54F8043B9847013615
:100EE400EDE754F8043B98470136F1E75012000847
:100EF4005012000850120008541200082DE9F0475F
:100F040082B00646DDF828E00846B4460D46002BBC
:100F14004ED18A4214466DD9B2FA82F242B1C2F17C
:100F24002003954026FA03F394401D4306FA02FC7D
:100F3400260CA7B2B5FBF6F14FEA1C4306FB11558C
:100F440043EA054301FB07F0984209D9E31801F18C
:100F5400FF3580F00381984240F200810239234436
:100F64001B1A1FFA8CFCB3FBF6F006FB10334CEA99
:100F7400034C00FB07F363450AD914EB0C0C00F196
:100F8400FF3580F0ED80634540F2EA80A4440238E6
:100F940040EA0140ACEB030C0021BEF1000F04D089
:100FA4002CFA02F30022CEE9003202B0BDE8F08749
:100FB4008B4209D9BEF1000F01D0CEE900610021B6
:100FC400084602B0BDE8F087B3FA83F1174600295A
:100FD4004DD1834202D3B24200F20F81B6EB070C2B
:100FE40060EB030301201D46BEF1000FDDD0CEE906
:100FF40000C5DAE7002A00F098801A46B4FA84F3B0
:10100400002B40F0AF800B1B270CA6B20121B3FBD1
:10101400F7F54FEA1C4007FB153340EA034306FB90
:1010240005F8984507D9E31805F1FF3002D2984531
:1010340000F2E8800546A3EB08031FFA8CFCB3FB1F
:10104400F7F007FB10334CEA034C06FB00F363454F
:1010540008D914EB0C0C00F1FF3602D2634500F200
:10106400CE803046ACEB030C40EA054095E7C1F175
:1010740020058B4022FA05FC4CEA030C00FA01F42B
:1010840026FA05F3E84002FA01F943EA04084FEAB4
:101094001C4206FA01FAB0FBF2F71FFA8CF602FBC7
:1010A40017004FEA184444EA004407FB06F0A04244
:1010B4000AD91CEB040407F1FF3380F09C80A042A2
:1010C40040F29980023F6444241A1FFA88F3B4FB67
:1010D400F2F002FB104443EA044300FB06F69E428E
:1010E40009D91CEB030300F1FF3480F082809E4297
:1010F4007FD90238634440EA0740A0FB09749B1B74
:10110400A3423E46A04664D361D0BEF1000F0AD08C
:10111400BAEB060263EB080303FA05F5CA4015436C
:10112400CB40CEE9005300213FE7730843EAC17383
:101134004A08190C41EA02414FEAC67C9BB2B2FB51
:10114400F4F02646A04627461F2243EA0143B1FB9A
:10115400F4F1A3EB080341EA004158E72946FFE60E
:10116400284615E71A46C3F120019C4026FA01F3EC
:1011740020FA01F190400343270C06FA02FCB1FB6C
:10118400F7F0A6B207FB1015190C41EA054100FB64
:1011940006F58D423BD9611801D28D4220D8491BF6
:1011A4000138B1FBF7F5019505FB06F8019D9BB2EB
:1011B40007FB151143EA0143434526D2E31805F121
:1011C400FF31C6D24345C4D2A91E2344C1E7BA4560
:1011D4009BD2B7EB090664EB0C040138A04694E7F4
:1011E400651B29440238B1FBF7F5019505FB06F8A8
:1011F400DCE720467FE71F4666E70846F4E6A4449A
:1012040002382FE7023D234415E70199A1E7491B62
:10121400B1FBF7F5019505FB06F8C7E7F8B500BF84
:10122400F8BC08BC9E467047F8B500BFF8BC08BCC3
:041234009E4670471B
:10123800000000000000000001020304060708097E
:08124800B8FCFF7F010000006B
:04125000F1010008A0
:04125400C9010008C4
:0C12580001000000100000000024F40061
:0400000508000E558C
:00000001FF
